:020000040000fa
:04025c000e2100006f
:020000040000fa
:040210000e210000bb
:020000040000fa
:040274000e21000057
:020000040000fa
:040334000e21000096
:020000040000fa
:04035c000e2100006e
:020000040000fa
:040270000e2100005b
:020000040000fa
:04022c000e2100009f
:020000040000fa
:04023c000e2100008f
:020000040000fa
:0402bc000e2100000f
:020000040000fa
:0402c0000e2100000b
:020000040000fa
:0402c4000e21000007
:020000040000fa
:0402c8000e21000003
:020000040000fa
:040280000e2100004b
:020000040000fa
:040284000e21000047
:020000040000fa
:04039c000e2100002e
:020000040000fa
:040228000e210000a3
:020000040000fa
:040278000e21000053
:020000040000fa
:04029c000e2100002f
:020000040000fa
:0402fc000e210000cf
:020000040000fa
:040300000e210000ca
:020000040000fa
:040260000e2100006b
:020000040000fa
:040264000e21000067
:020000040000fa
:04027c000e2100004f
:020000040000fa
:040288000e21000043
:020000040000fa
:0402b0000e2100001b
:020000040000fa
:0402b4000e21000017
:020000040000fa
:0402b8000e21000013
:020000040000fa
:040238000e21000093
:020000040000fa
:0402e0000e210000eb
:020000040000fa
:0402e4000e210000e7
:020000040000fa
:0402e8000e210000e3
:020000040000fa
:0402f4000e210000d7
:020000040000fa
:0402f8000e210000d3
:020000040000fa
:040304000e210000c6
:020000040000fa
:040308000e210000c2
:020000040000fa
:04030c000e210000be
:020000040000fa
:040310000e210000ba
:020000040000fa
:040314000e210000b6
:020000040000fa
:040318000e210000b2
:020000040000fa
:04031c000e210000ae
:020000040000fa
:040324000e210000a6
:020000040000fa
:040328000e210000a2
:020000040000fa
:040338000e21000092
:020000040000fa
:04033c000e2100008e
:020000040000fa
:040340000e2100008a
:020000040000fa
:040344000e21000086
:020000040000fa
:04034c000e2100007e
:020000040000fa
:040350000e2100007a
:020000040000fa
:040354000e21000076
:020000040000fa
:040358000e21000072
:020000040000fa
:040360000e2100006a
:020000040000fa
:040364000e21000066
:020000040000fa
:040368000e21000062
:020000040000fa
:040348000e21000082
:020000040000fa
:04026c000e2100005f
:020000040000fa
:0402f0000e210000db
:020000040000fa
:04037c000e2100004e
:020000040000fa
:040218000e210000b3
:020000040000fa
:040230000e2100009b
:020000040000fa
:040240000e2100008b
:020000040000fa
:04028c000e2100003f
:020000040000fa
:040290000e2100003b
:020000040000fa
:0402cc000e210000ff
:020000040000fa
:0402d0000e210000fb
:020000040000fa
:0402d4000e210000f7
:020000040000fa
:0402d8000e210000f3
:020000040000fa
:040398000e21000032
:020000040000fa
:04020c000e210000bf
:020000040000fa
:0402dc000e210000ef
:020000040000fa
:040320000e210000aa
:020000040000fa
:040208000e210000c3
:020000040000fa
:04021c000e210000af
:020000040000fa
:040220000e210000ab
:020000040000fa
:040224000e210000a7
:020000040000fa
:040268000e21000063
:020000040000fa
:0402ec000e210000df
:020000040000fa
:040378000e21000052
:020000040000fa
:04024c000e2100007f
:020000040000fa
:040250000e2100007b
:020000040000fa
:0402a8000e21000023
:020000040000fa
:0402ac000e2100001f
:020000040000fa
:040390000e2100003a
:020000040000fa
:040394000e21000036
:020000040000fa
:040214000e210000b7
:020000040000fa
:040234000e21000097
:020000040000fa
:040244000e21000087
:020000040000fa
:040248000e21000083
:020000040000fa
:040294000e21000037
:020000040000fa
:040298000e21000033
:020000040000fa
:04032c000e2100009e
:020000040000fa
:040254000e21000077
:020000040000fa
:040258000e21000073
:020000040000fa
:040330000e2100009a
:020000040000fa
:0402a0000e2100002b
:020000040000fa
:0402a4000e21000027
:020000040000fa
:04036c000e2100005e
:020000040000fa
:040370000e2100005a
:020000040000fa
:040374000e21000056
:020000040000fa
:040384000e21000046
:020000040000fa
:040388000e21000042
:020000040000fa
:04038c000e2100003e
:020000040000fa
:040380000e2100004a
:020000040000fa
:080000001011040000000000d3
:020000040000fa
:102220000f2821000eff27000e018800000000008b
:10223000000020000000e000020032000001200049
:1022400020028800140007007b0007000000e00067
:1022500003003a00800e2200010020000200370037
:102260000000200001002000810f700001003200fa
:1022700014000700000020000000e000020032000f
:102280000000020000000000a01e0200000000008c
:102290000040da000000fe004440a900a006200033
:1022a0000000e000030032000020200090018800c0
:1022b0004440a800000006008a1f78008b1f7800a9
:1022c00000000600a1028800800478000000eb00f6
:1022d0001f003700e284440054a0b4009905ba00fe
:1022e000e284440054a0b4009906ba00e284440099
:1022f00054a0b4000006eb00476fde00fd07b200fb
:10230000ae018800636ce10003003a00eaff0700b9
:102310000000eb000e003700606ce10008003a009e
:10232000004deb000a05e800020039003420ec0003
:102330000af0a0008b05e900f9ff3e000400370019
:102340006168e100010032000086eb000b0007002d
:1023500019c7ba001905ba000e04e00003003a00dc
:102360000a00e000dbff3a0000000600fe07b200b2
:10237000ae0288008a047800f5ff37000cd0a30075
:10238000e20f4d001c00390089027800354dba007b
:102390000a05e800020039003420ec000af0a00031
:1023a0008b05e9000f003200254dba000a05e80050
:1023b000020039003420ec000af0a0008b05e9008f
:1023c000080032000c00e0000600320015cdba0013
:1023d0000a05e800020039003420ec000af0a000f1
:1023e0008b05e9008984e80054a0b4000b00e000ec
:1023f000e2ff3a00000006009902ba00055d78008d
:102400008b05e900f7ff3200c82ade00055d780081
:102410008b05e900f3ff32000c00e000f1ff320011
:1024200019ddba00eeff3700c612040000000000fc
:0c243000081b0400000000000000050074
:020000040000fa
:1020000010110400000000000e2104000000000078
:102010000e210400000000000e210400000000005a
:102020000e210400000000000e210400000000004a
:102030000e210400000000000e210400000000003a
:102040000e210400000000000e210400000000002a
:102050000e210400000000000e210400000000001a
:102060000e210400000000000e210400000000000a
:102070000e210400000000000e21040000000000fa
:10208000ec1f0400000000008a1f04000000000094
:102090000e210400000000000e21040000000000da
:1020a0000e210400000000000e21040000000000ca
:1020b0000e210400000000000e21040000000000ba
:1020c0000e210400000000000e21040000000000aa
:1020d0000e210400000000000e210400000000009a
:1020e0000e210400000000000e210400000000008a
:1020f0000e210400000000000e210400000000007a
:102100000e210400000000000e2104000000000069
:102110000e210400000000000e2104000000000059
:102120000e210400000000000e2104000000000049
:102130000e210400000000000e2104000000000039
:102140000e210400000000000e2104000000000029
:102150000e210400000000000e2104000000000019
:102160000e210400000000000e2104000000000009
:102170000e210400000000000e21040000000000f9
:102180000e210400000000000e21040000000000e9
:102190000e210400000000000e21040000000000d9
:1021a0000e210400000000000e21040000000000c9
:1021b0000e210400000000000e21040000000000b9
:1021c0000e210400000000000e21040000000000a9
:1021d0000e21040000000000bc20040000000000ec
:1021e0000e210400000000000e2104000000000089
:1021f0000e210400000000000e2104000000000079
:102200000e210400000000000e2104000000000068
:102210000e210400000000000e2104000000000058
:020000040000fa
:1000080004100000081000000c1000001010000080
:10001800141000000c1100000c1100000c1100005d
:10002800181000001c100000201000002410000010
:100038000c110000281000002c10000030100000e7
:1000480034100000381000003c1000004010000080
:1000580044100000481000000c1100000c110000b2
:100068004c10000050100000541000005810000000
:100078005c1000000c11000060100000641000000b
:100088000c110000681000006c10000070100000d7
:1000980074100000781000007c1000008010000030
:1000a80084100000881000000c1100000c110000e2
:1000b8000c1100008c10000090100000941000003b
:1000c800981000009c100000a0100000a410000070
:1000d800a8100000ac1000000c1100000c1100006a
:1000e8000c110000b0100000b41000000c1100004a
:1000f8000c110000b8100000bc1000000c1100002a
:100108000c1100000c1100000c1100000c11000073
:100118000c1100000c110000c01000000c110000b0
:100128000c110000c4100000c8100000cc10000022
:100138000c1100000c1100000c1100000c11000043
:10014800d01000000c1100000c1100000c11000070
:100158000c110000d41000000c1100000c1100005c
:100168000c110000d8100000dc100000e0100000a6
:10017800e4100000e8100000ec100000f01000008f
:10018800f4100000f8100000fc100000001100003e
:1001980004110000081100000c1100000c110000ef
:1001a8000c1100000c1100000c1100000c110000d3
:1001b8000c1100000c1100000c1100000c110000c3
:1001c8000c1100000c1100000c1100000c110000b3
:1001d8000c1100000c1100000c1100000c110000a3
:1001e8000c1100000c1100000c1100000c11000093
:0801f8000c1100000c110000c5
:020000040000fa
:10243c00120100000002000000000000004000003b
:10244c0066660000030000000000000001020000ae
:10245c000001000009020000120000000101000050
:10246c0000a0000032090000040000000000000081
:10247c00ff000000ff000000309200000403000089
:10248c00090400001a0300004f0000006c0000005b
:10249c00690000006e0000002000000043000000f6
:1024ac006f0000006c0000006c0000006500000074
:1024bc0067000000650000002003000050000000d1
:1024cc00490000004300000032000000340000000e
:1024dc00460000004a0000003100000032000000fd
:1024ec0038000000470000004200000032000000ed
:1024fc0030000000360000004492000048920000ba
:04250c0062920000d7
:020000040000fa
:102510000600fa0040479800a04a200010079800e3
:10252000ce409000014f7800130037001e80fb0062
:10253000000040009e009000008040008000eb0002
:10254000010878001e80fb0080004000800c210004
:10255000008040008000eb00010878001e80fb0036
:1025600080004000800e2100008040008000eb00d1
:10257000010878001e4fe8001e407800ef4f500021
:10258000eaff36000080fa00000006000000fa00b2
:10259000c00b2100104078000080fb00b0248800b0
:1025a000b02480000000e00003003a0010c0b30037
:1025b00010e8b7000200370020c0b30010e8b700f1
:1025c0000000eb00408688000080fa000000060052
:1025d0000000fa009ec0a9009424a8009624ef00f1
:1025e000f00f2000702488009424a9000040eb0024
:1025f000c7ff0700d00020005025880000202100e0
:1026000001c4b30001487800a003210010908800a5
:102610001020210081c8b30001487800a0072100e4
:10262000309088005020210081c0b300014878001c
:10263000a624ef00a824ef00002021004800de00bf
:10264000c02488008644a80086e4a8008804a80066
:1026500094a4a9000d68ef001068ef0010c0b3004b
:102660000ee8b700a00b210080c0eb000148780005
:10267000b00b210080c0eb00014878000000eb00a7
:10268000208688000000eb003086880000000000f3
:10269000a124800000042000008060000000e00011
:1026a000fbff3a00f00f200060248800f00f2000ac
:1026b000802488008ec0a9009ec0a8000080fa0077
:1026c000000006000400fa00502480006200600050
:1026d0000000e00005003200f00f200070248800a8
:1026e0002000200050248800ba00370050248000c9
:1026f000640060000000e0000300320040002000a1
:1027000050248800b300370050248000700060001f
:102710000000e00003003200000120005024880087
:10272000ac003700512480000002200000806000cf
:102730000000e00003003200000220005024880066
:10274000a4003700512480000008200000806000b1
:102750000000e00003003200000820005024880040
:102760009c00370050248000610060000000e00001
:10277000270032000d68ef000800370080002000bd
:10278000502488000000000000000000000000004d
:102790000000000000000000000000005024800045
:1027a000680060000000e000f4ff3a000040eb0029
:1027b00057ff07000020210001c4b3000148780042
:1027c000a0032100109088001020210081c8b300d0
:1027d00001487800a0072100309088005020210097
:1027e00081c0b300014878009624ef00f00f20006c
:1027f00050248800d00020005025880010c0b3006d
:1028000010e8b70010c0b3000ee8b7007100370041
:1028100050248000680060000000e0006d0032007d
:10282000902480004300de00c200dd000020210073
:10283000008f40001e0078001040900001e8b700b3
:102840001e0078001040780000e8b7001e007800f5
:102850001000900010408800902480000040780014
:102860000fe8b70080002000502488000c68ef00bb
:1028700001c8bf008080fb00c00320000080600012
:1028800041022000810f5000080032004103200067
:10289000810f500003003200e40f50001700320097
:1028a0003d0037004e0007003b0037000fc8bf0057
:1028b0000080fb004400de00204798002e4090007e
:1028c0000080fb0080004000800c21000080400060
:1028d000100078000000e0002e0032002e40900032
:1028e0000080fb0080004000800c21000080400040
:1028f0001000780000000100270037000fc8bf005b
:102900000080fb004400de00204798002e4090002d
:102910000080fb0080004000800e2100008040000d
:10292000100078000000e000070032002e40900008
:102930000080fb0080004000800e210000804000ed
:1029400010007800000001002e4090000004e0001c
:1029500011003a00208680000000e0000e003a00de
:102960000020210001c4b30001487800102021009c
:1029700081c8b30001487800402021008040eb006e
:10298000014878005020210081ccb3000148780034
:1029900001003700000000000cc8bf000080fb00f1
:1029a00061006000004078000004e000090032008f
:1029b0000020210001c4b30001487800502021000c
:1029c00041c8b300014878001020210041c8b3007d
:1029d000014878008ec0a9000080fa0000000600bf
:1029e0000200fa0011408000010f78001e007800fc
:1029f0009040780040802000014878001e0fe800d9
:102a00001e0078009040780040802000114098001f
:102a10001e0fe8001e0078009040780040802000e3
:102a2000214098001e0fe8001e00780090407800ba
:102a300040802000314098001e0fe8001e00780002
:102a40009040780040802000414098001e0fe80030
:102a50001e0078009040780040802000514098008f
:102a60001e0fe8001e007800904078004080200093
:102a7000614098001e0fe8001e007800904078002a
:102a800040802000714098001e0fe80000202100c7
:102a900001c4b300014878005020210081c0b30078
:102aa0000148780040802000104078000004e000d9
:102ab0000600350040802000300090000000e0005b
:102ac0000200320080ccb3000100370080c8b300a0
:102ad000112021008048780094a4a900a00b2100b7
:102ae00080c0eb0001487800b00b210080c0eb00f3
:102af000014878000000eb00208688000000eb0011
:102b00003086880040802000104078008080fb00e4
:102b1000000620000080600001022000810f5000ac
:102b20001100320001042000810f50000400320027
:102b30000000e00016003a001a00070017003700f6
:102b4000c04080000000e00003003200c040800070
:102b500000000100110037000cc8bf000004a000f5
:102b60000ce8b7000d003700b04080000000e00026
:102b700003003200b0408000000001000700370071
:102b80000cc8bf000004a0000ce8b7000300370029
:102b90000cc8bf000004a0000ce8b7000080fa00d9
:102ba000000006000600fa0040802000104090005f
:102bb0000080fb00e60f5000ba013200e60f500023
:102bc0000c003c00e10f5000c1003200e10f50004a
:102bd00003003c000000e0001200320085023700d4
:102be000e30f5000ba003200e50f50008b013200b5
:102bf00080023700e90f500020023200e90f500038
:102c000003003c00e80f5000110232007902370047
:102c1000ea0f50003b023200eb0f5000540232002a
:102c20007402370040802000104078000080fb00d4
:102c30007f006000e10f500013003200e20f5000ef
:102c4000320032000000e0009c003a00309080002a
:102c5000e1802000914078000148780030908000a9
:102c60000000e8008040eb0001487800402021008f
:102c700021c0b300014878005020210081ccb3006e
:102c8000014878009100370010c8bf000080fb00a9
:102c9000e20f500003003200e30f50000500320045
:102ca000190037000cc8bf000004a0000ce8b700f2
:102cb0001500370040802000404090000004e000f4
:102cc0000e003a00309080008040eb000148780010
:102cd000309080000000e8008040eb000148780060
:102ce0004020210021c0b30001487800502021007d
:102cf00081ccb30001487800030037000cc8bf0046
:102d00000004a0000ce8b7007000370010c8bf0036
:102d10000080fb00e20f500003003200e30f500080
:102d200029003200610037004080200040409000c0
:102d30000080fb006f0060000000e0001e003a0011
:102d40003190800040802000404090000004e0006e
:102d500007003d0050202100104078000080fb005b
:102d6000640060004280de0000407800060037000a
:102d700010202100104078000080fb0064006000fb
:102d80004280de000040780080487800309080006b
:102d90000000e8008040eb0001487800402021005e
:102da00021c0b300014878005020210081ccb3003d
:102db00001487800030037000cc8bf000004a000e1
:102dc0000ce8b7003c003700a04a2000000f780054
:102dd00040802000404090006f40600020479800f5
:102de0002e4090000080fb00000040008000780032
:102df00040802000404090000000fb004f00de00bb
:102e000001007000c200dd000020210000804000b1
:102e1000200798002e4090000080fb00000040003a
:102e20001e0040009000780040802000404090004c
:102e30000004e00002003d004000200001003700d7
:102e400080002000008060000000e00013003200dd
:102e500030908000ae009000914090008180fb0097
:102e6000e4806000c288de0081407800014878007c
:102e7000309080000000e8008040eb0001487800be
:102e80004020210021c0b3000148780050202100db
:102e900081ccb30001487800030037000cc8bf00a4
:102ea0000004a0000ce8b700030037000cc8bf0006
:102eb0000004a0000ce8b700040037000cc8bf00f5
:102ec0000004a0000ce8b700cf013700ce013700a6
:102ed00040802000104078000080fb007f006000f0
:102ee0000000e00003003200e20f50001c0032003e
:102ef000c500370040802000204090000080fb008b
:102f0000e10f500012003a00408020001040900075
:102f1000e14f500004003a000ec8bf000004a100b9
:102f20000ee8b700030037000ec8bf000004a00081
:102f30000ee8b700402021008040eb0001487800f7
:102f40005020210081ccb3000148780003003700f5
:102f50000cc8bf000004a0000ce8b700ae003700aa
:102f600010c8bf000080fb00e20f500003003200d9
:102f7000e30f5000120032009f0037004080200015
:102f8000404090000080fb006f0060000000e00007
:102f900007003a00402021008040eb000148780003
:102fa0005020210081ccb300014878000300370095
:102fb0000cc8bf000004a0000ce8b7009100370067
:102fc000a04a2000000f7800408020004040900080
:102fd0006f406000204798002e4090000004e00001
:102fe000790032002e4090000080fb00000040007d
:102ff0008000780040802000404090000000fb00ee
:103000004f00de0001007000c200dd000020210042
:103010000080400020079800408020004040900041
:103020000004e00030003d002e4090000080fb00d6
:10303000000040001e0040001000780064006000a6
:103040000000e0002400320040802000104090008a
:10305000e14f500019003a002e4090000080fb0024
:10306000000040009e0040002e4090000080fb00c9
:10307000000040001e00400010017800d00f20002a
:1030800000006100800878002e0090001040900041
:10309000804078000124a1002e009000114098008b
:1030a0002e00900010409000804078000164a00045
:1030b0002e00900011409800430037002e00900031
:1030c00010409000804078000124a0002e00900065
:1030d000114098003c0037000cc8bf000004a0005d
:1030e0000ce8b700380037002e4090000080fb004d
:1030f000000040001e0040001000780068006000e2
:103100000000e0002d0032004080200010409000c0
:10311000e14f500019003a002e4090000080fb0063
:10312000000040009e0040002e4090000080fb0008
:10313000000040001e00400010017800d00f200069
:1031400000006100800878002e0090001040900080
:10315000804078000124a1002e00900011409800ca
:103160002e00900010409000804078000164a10083
:103170002e00900011409800060037002e009000ad
:1031800010409000804078000124a0002e009000a4
:10319000114098004080200010409000e14f500006
:1031a00002003a0080c8b3000100370040c8b300f5
:1031b000ae00900090409800030037000cc8bf009c
:1031c0000004a0000ce8b7000cc8bf000080fb00a2
:1031d000610060000000e00006003a00402021008d
:1031e0008040eb00014878005020210081ccb300e2
:1031f00001487800030037000cc8bf000004a0009d
:103200000ce8b700040037000cc8bf000004a000a1
:103210000ce8b700fc003700fb00370040802000be
:10322000204090000004e00004003d000cc8bf00f6
:103230000004a0000ce8b700f30037004080200035
:1032400090407800a00b21000148780040802000c9
:1032500090409000b00b2100014878004080200091
:1032600010009000e0858800408020002000900041
:10327000f0858800408020003000900000868800a3
:10328000602c210040868800402021008040eb0017
:10329000014878005020210081ccb300014878001b
:1032a000d90037004080200090407800a00b21001a
:1032b000014878004080200090409000b00b210031
:1032c000014878004080200010009000e0858800d0
:1032d0004080200020009000f08588004080200081
:1032e0003000900000868800408020003040900030
:1032f0000080fb00e20f50000b003200e30f500093
:1033000024003200e10f500037003a00e02129008c
:103310001086880010868000104078000080fb0036
:10332000208688003900370040802000204090002f
:103330000004e00013003a0040802000204090008c
:103340000080fb0080004000202429000080400015
:103350001000780010868800108680000080e80049
:1033600090407800400c21000148780010868000d1
:103370006300400090407800500c21000148780024
:10338000220037000cc8bf000004a0000ce8b70002
:103390001e0037004080200020409000e34f500086
:1033a0000d003e0040802000204090000080fb0087
:1033b0008000400020282900008040001000780094
:1033c0001086880010868000104078000080fb0086
:1033d000208688000d0037000cc8bf000004a00044
:1033e0000ce8b70009003700a04080000000e000b2
:1033f00003003200a04080000000010003003700fd
:103400000cc8bf000004a0000ce8b7000cc8bf0047
:103410000080fb00610060000000e00079003a00dd
:1034200080b021004086880040802000b0009000dd
:1034300020868000808f50000300310040802000f3
:103440003000900020868800710007006e00370071
:1034500030908000d18020009140780001487800b1
:103460004020210011c0b300014878005020210005
:1034700081ccb30001487800630037004080200011
:1034800020409000e14f50001a003e0010c0b300f1
:103490001ffc070040802000204090000de8b7008e
:1034a0000dc8bf000080fb000000e00003003a00f0
:1034b00020c0b30010e8b7000700370030c0b300e9
:1034c00010e8b700904080000000e00002003200e9
:1034d0009040800000000100402021008040eb006f
:1034e000014878005020210081ccb30001487800c9
:1034f000450037000cc8bf000004a0000ce8b7006e
:103500004100370010c8bf000080fb00e30f5000ef
:1035100013003a0040802000404090000004e0008a
:103520000a003a00309080008040eb0001487800ab
:103530004020210011c0b300014878005020210034
:1035400081ccb30001487800030037000cc8bf00ed
:103550000004a0000ce8b700000000002a003700bb
:103560000cc8bf000004a0000ce8b700260037001c
:1035700010c8bf000080fb00e30f500019003a00a4
:1035800040802000404090000004e00010003a001d
:1035900040802000204090000080fb000000e00000
:1035a00007003a00402021008040eb0001487800ed
:1035b0005020210081ccb30001487800070037007b
:1035c0000cc8bf000004a0000ce8b70003003700df
:1035d0000cc8bf000004a0000ce8b7000000000009
:1035e000090037000cc8bf000004a0000ce8b700b9
:1035f000050037000cc8bf000004a0000ce8b700ad
:1036000001003700000000000080fa000000060002
:103610000200fa0021868000f0032000808f500015
:1036200005003e0020868000004f78000000eb007f
:10363000208688000500370000c4b300004f7800e2
:10364000208680000004b100208688000040eb0046
:10365000104798000c003700319080001e40900009
:103660000080fb00808040001086800010417800c0
:10367000824878000000e800108688001e40900014
:103680000040e800104798001e4090009e4f5000f8
:10369000f1ff3900402021001e4878005020210011
:1036a0001040780000c0ea0002c4b300824060000d
:1036b00080c8b30000c07000804078005020210016
:1036c00001487800208680000000e0000f003a00ea
:1036d000308680000000e00002003200308680006a
:1036e00000000100a00b210080c0eb000148780021
:1036f000b00b210080c0eb00014878000000eb0017
:10370000308688000000eb00408688000080fa00c8
:10371000000006000200fa000040eb00004f7800b5
:103720000900370010868000129080009e80fb0008
:103730008100410091407800014878000000e800d5
:10374000108688001e4fe8000020210010407800fd
:103750009e4f5000f3ff3e00218680000020210094
:10376000104078000080fb00008050002086880018
:10377000208680000000e0000e00320000202100c2
:1037800001c4b300014878001020210010407800e7
:1037900000c0ea0002c4b3008240600080c8b300e9
:1037a00000c070008040780010202100014878009f
:1037b0000f003700308680000000e0000200320079
:1037c0003086800000000100a00b210080c0eb00cb
:1037d00001487800b00b210080c0eb000148780060
:1037e0000000eb00308688000000eb004087880076
:1037f0000080fa00000006000400fa00f0c2a900f0
:10380000f2c2a800f0e2a800006c2000000f7800cf
:103810000068200010079800113a8000f00b20008b
:1038200000816000600420007105200023742000e6
:103830008049780081497800824978001e00900014
:103840004002b000a1c1b300014878009e0078009a
:103850007580400031c0b30001487800103a800004
:10386000000178000260a0006004200071052000c3
:1038700023742000804978008149780082497800cb
:1038800080002000001188002002200040118800e4
:10389000a083200030418800004020004041880083
:1038a0000000eb00504188000000eb006041880000
:1038b0000000eb00704188000030200020418800ab
:1038c000a0c3200080418800004020009041880073
:1038d0000000eb00a04188000000eb00b041880030
:1038e0000000eb00c041880023e2a90023a2a80049
:1038f0008580a9009580a8008560a9009560a80032
:1039000021e2a8002342a8000080fa00000006007f
:103910000000fa00c04180000080fa0000000600ac
:103920000000fa00111180000040200000806000bb
:103930000000e00001003a002342a8000080fa00e5
:10394000000006000200fa00004f780000000000ae
:103950007141800040418000808f5000fcff3200a8
:10396000ff3ffc003141800060418000008040004a
:103970001e487800604180000000e8006041880037
:103980006141800040418000808f500002003a0079
:103990000000eb0060418800704180000000e800fa
:1039a000704188005220ef0071418000204180006a
:1039b000808f5000010039002342a8000080fa00e7
:1039c000000006000200fa0000000000c041800074
:1039d0000000e000fdff3200ff3ffc00814180005d
:1039e000a041800000804000104f7800a04180007e
:1039f0000000e800a0418800a141800090418000c3
:103a0000808f500002003a000000eb00a0418800c7
:103a1000c04180000000e900c04188005220ef0052
:103a20001e4078000080fa00000006000200fa0044
:103a3000000f7800040037001e0078001040780066
:103a40001e0fe800bfff07001e007800104078003e
:103a50000004e000f8ff3a00b1ff07000080fa0020
:103a6000000006000400fa00000f7800110798001b
:103a70001e0090000000e0001a0032001e009000be
:103a8000e10f500004003a001e0078008040eb0077
:103a90000148780014003700caff07009e00780034
:103aa000804878001e00780010407800ed4f5000ec
:103ab000080032001e009000e10f500005003200a7
:103ac0001e0fe8001e0090000000e900100798009b
:103ad000f1ff37001e0078008040eb0001487800bd
:103ae00001003700000000000080fa00000006001e
:103af0000800fa0020079800310798003e00900067
:103b00000000e0006f0032003e009000e10f500026
:103b100004003a002e0090008040eb00014878003d
:103b200069003700b0c1b30086ff070070c3b3005f
:103b300084ff07007aff0700ae009000110798008d
:103b4000be009000010f7800030037000000000065
:103b500001003700000000009aff0700ae0090004f
:103b6000804878002e00900010407800ed4f500003
:103b700009003a002e0090008040eb0001487800d8
:103b8000a0c0b3006fff0700d0c0b3006dff0700f7
:103b900063ff07004c0037002e00900010407800b3
:103ba000fb4f500010003a00b0c1b30065ff0700a2
:103bb00080c3b30063ff0700b0c1b30061ff07001b
:103bc000b0c5b3005fff0700b0c4b3005dff0700de
:103bd00053ff07009e00900021079800be00900050
:103be000010f7800360037002e009000104078005a
:103bf000e84f5000050032002e0090009040780001
:103c0000f0c7b30080cf500014003a00ae0090001f
:103c10001e009000808f50000c00360080c0b30062
:103c200048ff070000c2b30046ff070080c0b30092
:103c300044ff07003aff07002e0090000000e90053
:103c4000200798001e0fe8000300370070c0b30083
:103c50003cff070032ff0700190037001e00780004
:103c6000e10f500004003a0070c0b30035ff0700b8
:103c70002bff0700120037002e0090001040780044
:103c8000ff4f5000b1ff36002e00900090407800aa
:103c9000e0c7b30080cf5000aeff3e002e00900082
:103ca0001040780027ff07001dff07002e0090003e
:103cb0000000e800200798001e0fe900a6ff37006b
:103cc000a5ff3700000000000080fa000000060099
:103cd0000800fa00100798002107980032079800a2
:103ce0001e00900060004000e20f500010003e00f7
:103cf0000000eb00000f7800070037002e00900056
:103d000010407800ae0090008100e8002107980084
:103d10000cff07001e0fe8009e0078003e00900098
:103d2000808f5000f5ff3900fdfe070001003700cd
:103d3000000000003e0090000080fa000000060035
:103d40000400fa00cf000700abfe07000084230048
:103d5000d040880000b02400e0408800006c2000c3
:103d6000000f78000068200010079800113a8000ca
:103d7000f00b20000081600060042000710520002d
:103d800023742000804978008149780082497800b6
:103d90001e009000c002b00091c1b300014878003d
:103da0009e00780074804000a1c0b30001487800f4
:103db0009e0078006a804000b1c0b30001487800de
:103dc000103a8000000178000260a000600420002a
:103dd0007105200023742000804978008149780013
:103de00082497800b0032000101388006422ef009d
:103df0000000280000138800d922a900d942a90098
:103e0000db22a900db42a900006c2000000f780033
:103e10000068200010079800113a8000f00b200085
:103e200000816000600420007105200023742000e0
:103e30008049780081497800824978009e007800a6
:103e40006480400021c1b300014878009e007800e2
:103e50006380400031c1b30001487800103a80000f
:103e6000000178000260a0006004200071052000bd
:103e700023742000804978008149780082497800c5
:103e8000f0c02100800c8800b0082000900c880051
:103e900000002000012c2100f04088000141880032
:103ea00001418000d040800000804000a00c8800cc
:103eb00010002000b00c88009821ef00f0c0210015
:103ec000d00c8800b0082000e00c88000000200022
:103ed00001842300f04088000141880001418000f6
:103ee000d040800000804000f00c880010002000ce
:103ef000000d8800a221ef000001200020088800aa
:103f0000f0c32900100888000021ef0005e1a80097
:043f1000ffff370078
:020000040000fa
:103f1400809fbe003200f8003400f800100020003a
:103f2400a001880000202000900188000200fa000f
:103f34008580a900704180000000e00017003a006d
:103f44002342a90016003700ff3ffc0031418000e6
:103f54005041800000804000104f780050418000a4
:103f64000000e80050418800514180004041800039
:103f7400808f500002003a000000eb00504188009e
:103f8400704180000000e900704188005220ef0079
:103f94001e80fb0020118800010037000000000093
:103fa4001111800000202000008060000000e0006b
:103fb40003003a00704180000000e000e2ff3a0094
:103fc4000080fa003400f9003200f9004f00be000e
:103fd40000400600809fbe003200f8003400f80064
:103fe40010002000a001880000202000900188001b
:103ff4000000fa008560a90014003700ff3ffc00b0
:1040040081418000b0418000008040003111800077
:104014008140780001487800b04180000000e80049
:10402400b0418800b141800090418000808f5000f1
:1040340002003a000000eb00b0418800c04180005b
:104044000000e800c04188005220ef0010118000f9
:10405400610060000000e00004003200c141800003
:1040640090418000808f5000e4ff3a000080fa0005
:104074003400f9003200f9004f00be000040060091
:020000040000fa
:104084000000fa0000102000203a8800d8a2a800fe
:10409400d882a800e882a800e8a2a800c9e2a80083
:1040a400e862a800d902a800d962a800d922a80011
:1040b400d942a800d802a800d822a800d842a80053
:1040c400d862a800c8a2a800c882a800c862a80034
:1040d400c842a800c822a800c802a800f003200013
:1040e40010278800e424ef00e624ef00ea24ef0020
:1040f400ec24ef00000e2000001988002223ef00ba
:1041040000c42000201988005000200040198800b5
:1041140021e3a800d8e2a900dce2a900e802a90092
:10412400ec02a900e822a900ec22a900d1e2a8002f
:10413400d182a800c982a8000080fa00000006000d
:104144000200fa00000f78009e00780041198800f0
:104154002023a80000000000001980006100600016
:104164000000e000fcff3200001880000080fa002c
:044174000000060041
:020000040000fa
:104178003600f800809fbe00829fbe00849fbe006c
:10418800869fbe003200f8003400f80010002000be
:10419800a001880000202000900188000000fa009b
:1041a80046f907000080fa003400f9003200f900ef
:1041b8004f03be004f02be004f01be004f00be00bd
:0841c8003600f900004006007a
:020000040000fa
:1041d0001a0800000a000000800000003a100000e9
:1041e000ce000000800000000012000080000000ef
:1041f00080000000000800001a000000800000009d
:1042000026080000140800008000000024080000b8
:0c42100002000000800000000000000020
:020000040000fa
:08421c000040da000000fe0082
:00000001FF
